{
  "contractName": "CollateralizedLeverage",
  "abi": [
    {
      "inputs": [
        {
          "internalType": "address",
          "name": "_tokenX",
          "type": "address"
        },
        {
          "internalType": "address",
          "name": "_tokenA",
          "type": "address"
        }
      ],
      "stateMutability": "nonpayable",
      "type": "constructor"
    },
    {
      "anonymous": false,
      "inputs": [
        {
          "indexed": true,
          "internalType": "address",
          "name": "loaner",
          "type": "address"
        },
        {
          "indexed": false,
          "internalType": "uint256",
          "name": "amount",
          "type": "uint256"
        },
        {
          "indexed": false,
          "internalType": "uint256",
          "name": "timestamp",
          "type": "uint256"
        }
      ],
      "name": "AddedToPool",
      "type": "event"
    },
    {
      "anonymous": false,
      "inputs": [
        {
          "indexed": true,
          "internalType": "address",
          "name": "borrower",
          "type": "address"
        },
        {
          "indexed": false,
          "internalType": "uint256",
          "name": "amountX",
          "type": "uint256"
        },
        {
          "indexed": false,
          "internalType": "uint256",
          "name": "paybackX",
          "type": "uint256"
        },
        {
          "indexed": false,
          "internalType": "uint256",
          "name": "amountA",
          "type": "uint256"
        },
        {
          "indexed": false,
          "internalType": "uint256",
          "name": "timestamp",
          "type": "uint256"
        }
      ],
      "name": "CollateralLoanReturned",
      "type": "event"
    },
    {
      "anonymous": false,
      "inputs": [
        {
          "indexed": true,
          "internalType": "address",
          "name": "borrower",
          "type": "address"
        },
        {
          "indexed": false,
          "internalType": "uint256",
          "name": "amountX",
          "type": "uint256"
        },
        {
          "indexed": false,
          "internalType": "uint256",
          "name": "amountA",
          "type": "uint256"
        },
        {
          "indexed": false,
          "internalType": "uint256",
          "name": "timestamp",
          "type": "uint256"
        }
      ],
      "name": "CollateralLoanTaken",
      "type": "event"
    },
    {
      "anonymous": false,
      "inputs": [
        {
          "indexed": true,
          "internalType": "address",
          "name": "previousOwner",
          "type": "address"
        },
        {
          "indexed": true,
          "internalType": "address",
          "name": "newOwner",
          "type": "address"
        }
      ],
      "name": "OwnershipTransferred",
      "type": "event"
    },
    {
      "anonymous": false,
      "inputs": [
        {
          "indexed": true,
          "internalType": "address",
          "name": "loaner",
          "type": "address"
        },
        {
          "indexed": false,
          "internalType": "uint256",
          "name": "amount",
          "type": "uint256"
        },
        {
          "indexed": false,
          "internalType": "uint256",
          "name": "reward",
          "type": "uint256"
        }
      ],
      "name": "WithdrawedFromPool",
      "type": "event"
    },
    {
      "inputs": [],
      "name": "EXCANGE_RATE",
      "outputs": [
        {
          "internalType": "uint256",
          "name": "",
          "type": "uint256"
        }
      ],
      "stateMutability": "view",
      "type": "function"
    },
    {
      "inputs": [],
      "name": "MONTH",
      "outputs": [
        {
          "internalType": "uint128",
          "name": "",
          "type": "uint128"
        }
      ],
      "stateMutability": "view",
      "type": "function"
    },
    {
      "inputs": [],
      "name": "MONTH_PAYBACK_RATE",
      "outputs": [
        {
          "internalType": "uint256",
          "name": "",
          "type": "uint256"
        }
      ],
      "stateMutability": "view",
      "type": "function"
    },
    {
      "inputs": [],
      "name": "MONTH_REWARD_RATE",
      "outputs": [
        {
          "internalType": "uint256",
          "name": "",
          "type": "uint256"
        }
      ],
      "stateMutability": "view",
      "type": "function"
    },
    {
      "inputs": [],
      "name": "loanId",
      "outputs": [
        {
          "internalType": "uint256",
          "name": "",
          "type": "uint256"
        }
      ],
      "stateMutability": "view",
      "type": "function"
    },
    {
      "inputs": [
        {
          "internalType": "uint256",
          "name": "",
          "type": "uint256"
        }
      ],
      "name": "loans",
      "outputs": [
        {
          "internalType": "address",
          "name": "lender",
          "type": "address"
        },
        {
          "internalType": "bool",
          "name": "clamed",
          "type": "bool"
        },
        {
          "internalType": "address",
          "name": "borrower",
          "type": "address"
        },
        {
          "internalType": "bool",
          "name": "finished",
          "type": "bool"
        },
        {
          "internalType": "uint256",
          "name": "tokenX",
          "type": "uint256"
        },
        {
          "internalType": "uint256",
          "name": "tokenA",
          "type": "uint256"
        },
        {
          "internalType": "uint128",
          "name": "timestamp",
          "type": "uint128"
        },
        {
          "internalType": "uint128",
          "name": "duration",
          "type": "uint128"
        }
      ],
      "stateMutability": "view",
      "type": "function"
    },
    {
      "inputs": [],
      "name": "owner",
      "outputs": [
        {
          "internalType": "address",
          "name": "",
          "type": "address"
        }
      ],
      "stateMutability": "view",
      "type": "function"
    },
    {
      "inputs": [],
      "name": "renounceOwnership",
      "outputs": [],
      "stateMutability": "nonpayable",
      "type": "function"
    },
    {
      "inputs": [
        {
          "internalType": "address",
          "name": "newOwner",
          "type": "address"
        }
      ],
      "name": "transferOwnership",
      "outputs": [],
      "stateMutability": "nonpayable",
      "type": "function"
    },
    {
      "inputs": [
        {
          "internalType": "uint256",
          "name": "_amountX",
          "type": "uint256"
        },
        {
          "internalType": "uint128",
          "name": "_duration",
          "type": "uint128"
        }
      ],
      "name": "AddToPool",
      "outputs": [],
      "stateMutability": "nonpayable",
      "type": "function"
    },
    {
      "inputs": [
        {
          "internalType": "uint256",
          "name": "_id",
          "type": "uint256"
        }
      ],
      "name": "WithdrawFromPool",
      "outputs": [],
      "stateMutability": "nonpayable",
      "type": "function"
    },
    {
      "inputs": [
        {
          "internalType": "uint256",
          "name": "_id",
          "type": "uint256"
        }
      ],
      "name": "CalculateRewards",
      "outputs": [
        {
          "internalType": "uint256",
          "name": "amount",
          "type": "uint256"
        }
      ],
      "stateMutability": "view",
      "type": "function"
    },
    {
      "inputs": [
        {
          "internalType": "uint256",
          "name": "_id",
          "type": "uint256"
        }
      ],
      "name": "TakeCollateralLoan",
      "outputs": [],
      "stateMutability": "nonpayable",
      "type": "function"
    },
    {
      "inputs": [
        {
          "internalType": "uint256",
          "name": "_id",
          "type": "uint256"
        }
      ],
      "name": "Payback",
      "outputs": [],
      "stateMutability": "nonpayable",
      "type": "function"
    },
    {
      "inputs": [
        {
          "internalType": "uint256",
          "name": "_id",
          "type": "uint256"
        }
      ],
      "name": "CalculateLoanFee",
      "outputs": [
        {
          "internalType": "uint256",
          "name": "amount",
          "type": "uint256"
        }
      ],
      "stateMutability": "view",
      "type": "function"
    },
    {
      "inputs": [
        {
          "internalType": "uint256",
          "name": "_id",
          "type": "uint256"
        }
      ],
      "name": "CollateralLowerThanInterest",
      "outputs": [
        {
          "internalType": "bool",
          "name": "lower",
          "type": "bool"
        }
      ],
      "stateMutability": "view",
      "type": "function"
    }
  ],
  "bytecode": "0x60c06040523480156200001157600080fd5b5060405162002587380380620025878339818101604052810190620000379190620001b0565b620000576200004b620000cd60201b60201c565b620000d560201b60201c565b8173ffffffffffffffffffffffffffffffffffffffff1660808173ffffffffffffffffffffffffffffffffffffffff1660601b815250508073ffffffffffffffffffffffffffffffffffffffff1660a08173ffffffffffffffffffffffffffffffffffffffff1660601b8152505050506200023f565b600033905090565b60008060009054906101000a900473ffffffffffffffffffffffffffffffffffffffff169050816000806101000a81548173ffffffffffffffffffffffffffffffffffffffff021916908373ffffffffffffffffffffffffffffffffffffffff1602179055508173ffffffffffffffffffffffffffffffffffffffff168173ffffffffffffffffffffffffffffffffffffffff167f8be0079c531659141344cd1fd0a4f28419497f9722a3daafe3b4186f6b6457e060405160405180910390a35050565b600081519050620001aa8162000225565b92915050565b60008060408385031215620001c457600080fd5b6000620001d48582860162000199565b9250506020620001e78582860162000199565b9150509250929050565b6000620001fe8262000205565b9050919050565b600073ffffffffffffffffffffffffffffffffffffffff82169050919050565b6200023081620001f1565b81146200023c57600080fd5b50565b60805160601c60a05160601c6123006200028760003960008181610a310152610e900152600081816104ba01528181610ae101528181610dbf015261130c01526123006000f3fe608060405234801561001057600080fd5b50600436106101005760003560e01c8063a516584b11610097578063e1ec3c6811610066578063e1ec3c6814610277578063e42438dd146102ae578063f2fde38b146102ca578063f599e174146102e657610100565b8063a516584b146101ff578063b81129671461021d578063c95669a51461023b578063d5999a5c1461025957610100565b806354a50c7b116100d357806354a50c7b1461019f57806355d32d6e146101bb578063715018a6146101d75780638da5cb5b146101e157610100565b806307259d1e1461010557806321ff62ed146101355780632969d1fa14610165578063494ac38b14610181575b600080fd5b61011f600480360381019061011a91906117f1565b610316565b60405161012c9190611eed565b60405180910390f35b61014f600480360381019061014a91906117f1565b6103f1565b60405161015c9190611d17565b60405180910390f35b61017f600480360381019061017a919061181a565b61041b565b005b61018961080e565b6040516101969190611eed565b60405180910390f35b6101b960048036038101906101b491906117f1565b610813565b005b6101d560048036038101906101d091906117f1565b610c10565b005b6101df610fd7565b005b6101e9610feb565b6040516101f69190611c1e565b60405180910390f35b610207611014565b6040516102149190611eed565b60405180910390f35b610225611019565b6040516102329190611eed565b60405180910390f35b61024361101e565b6040516102509190611eed565b60405180910390f35b610261611024565b60405161026e9190611ed2565b60405180910390f35b610291600480360381019061028c91906117f1565b61102b565b6040516102a5989796959493929190611c70565b60405180910390f35b6102c860048036038101906102c391906117f1565b611105565b005b6102e460048036038101906102df919061179f565b611443565b005b61030060048036038101906102fb91906117f1565b6114c7565b60405161030d9190611eed565b60405180910390f35b6000806064600a600260008681526020019081526020016000206002015461033e91906120d5565b610348919061205a565b9050600062278d006fffffffffffffffffffffffffffffffff166002600086815260200190815260200160002060040160009054906101000a90046fffffffffffffffffffffffffffffffff166fffffffffffffffffffffffffffffffff16426103b2919061212f565b6103bc919061205a565b905060005b8181116103e95782846103d49190612004565b935080806103e1906121c7565b9150506103c1565b505050919050565b6000600260008381526020019081526020016000206002015461041383610316565b119050919050565b6000816fffffffffffffffffffffffffffffffff1611610470576040517f08c379a000000000000000000000000000000000000000000000000000000000815260040161046790611df2565b60405180910390fd5b600082116104b3576040517f08c379a00000000000000000000000000000000000000000000000000000000081526004016104aa90611d32565b60405180910390fd5b60003390507f000000000000000000000000000000000000000000000000000000000000000073ffffffffffffffffffffffffffffffffffffffff166323b872dd8230866040518463ffffffff1660e01b815260040161051593929190611c39565b602060405180830381600087803b15801561052f57600080fd5b505af1158015610543573d6000803e3d6000fd5b505050506040513d601f19601f8201168201806040525081019061056791906117c8565b5060006040518061010001604052808373ffffffffffffffffffffffffffffffffffffffff168152602001600015158152602001600073ffffffffffffffffffffffffffffffffffffffff168152602001600015158152602001858152602001600081526020016105d7426115a2565b6fffffffffffffffffffffffffffffffff16815260200162278d00856105fd919061208b565b610606426115a2565b6106109190611fbe565b6fffffffffffffffffffffffffffffffff1681525090508060026000600154815260200190815260200160002060008201518160000160006101000a81548173ffffffffffffffffffffffffffffffffffffffff021916908373ffffffffffffffffffffffffffffffffffffffff16021790555060208201518160000160146101000a81548160ff02191690831515021790555060408201518160010160006101000a81548173ffffffffffffffffffffffffffffffffffffffff021916908373ffffffffffffffffffffffffffffffffffffffff16021790555060608201518160010160146101000a81548160ff0219169083151502179055506080820151816002015560a0820151816003015560c08201518160040160006101000a8154816fffffffffffffffffffffffffffffffff02191690836fffffffffffffffffffffffffffffffff16021790555060e08201518160040160106101000a8154816fffffffffffffffffffffffffffffffff02191690836fffffffffffffffffffffffffffffffff160217905550905050600160008154809291906107b3906121c7565b91905055508173ffffffffffffffffffffffffffffffffffffffff167f742b8479ca612f176ac7c33a650954a83d0d97cab37c33d611f1d6aa8bb14ba08542604051610800929190611f08565b60405180910390a250505050565b600581565b60003390506002600083815260200190815260200160002060000160009054906101000a900473ffffffffffffffffffffffffffffffffffffffff1673ffffffffffffffffffffffffffffffffffffffff168173ffffffffffffffffffffffffffffffffffffffff1614156108bd576040517f08c379a00000000000000000000000000000000000000000000000000000000081526004016108b490611e12565b60405180910390fd5b60006002600084815260200190815260200160002060040160009054906101000a90046fffffffffffffffffffffffffffffffff166fffffffffffffffffffffffffffffffff1614610944576040517f08c379a000000000000000000000000000000000000000000000000000000000815260040161093b90611e72565b60405180910390fd5b600060028060008581526020019081526020016000206002015461096891906120d5565b9050816002600085815260200190815260200160002060010160006101000a81548173ffffffffffffffffffffffffffffffffffffffff021916908373ffffffffffffffffffffffffffffffffffffffff1602179055508060026000858152602001908152602001600020600301819055506109e3426115a2565b6002600085815260200190815260200160002060040160006101000a8154816fffffffffffffffffffffffffffffffff02191690836fffffffffffffffffffffffffffffffff1602179055507f000000000000000000000000000000000000000000000000000000000000000073ffffffffffffffffffffffffffffffffffffffff166323b872dd8330846040518463ffffffff1660e01b8152600401610a8c93929190611c39565b602060405180830381600087803b158015610aa657600080fd5b505af1158015610aba573d6000803e3d6000fd5b505050506040513d601f19601f82011682018060405250810190610ade91906117c8565b507f000000000000000000000000000000000000000000000000000000000000000073ffffffffffffffffffffffffffffffffffffffff1663a9059cbb8360026000878152602001908152602001600020600201546040518363ffffffff1660e01b8152600401610b50929190611cee565b602060405180830381600087803b158015610b6a57600080fd5b505af1158015610b7e573d6000803e3d6000fd5b505050506040513d601f19601f82011682018060405250810190610ba291906117c8565b508173ffffffffffffffffffffffffffffffffffffffff167f417a30adc5c0380169594ad0321d0bedba23dac4f8dad4bf59a40a769a0534ef60026000868152602001908152602001600020600201548342604051610c0393929190611f31565b60405180910390a2505050565b60003390506002600083815260200190815260200160002060000160149054906101000a900460ff1615610c79576040517f08c379a0000000000000000000000000000000000000000000000000000000008152600401610c7090611dd2565b60405180910390fd5b6002600083815260200190815260200160002060010160149054906101000a900460ff1615610cdd576040517f08c379a0000000000000000000000000000000000000000000000000000000008152600401610cd490611d52565b60405180910390fd5b8073ffffffffffffffffffffffffffffffffffffffff166002600084815260200190815260200160002060010160009054906101000a900473ffffffffffffffffffffffffffffffffffffffff1673ffffffffffffffffffffffffffffffffffffffff1614610d81576040517f08c379a0000000000000000000000000000000000000000000000000000000008152600401610d7890611e32565b60405180910390fd5b6000610d8c83610316565b905060016002600085815260200190815260200160002060000160146101000a81548160ff0219169083151502179055507f000000000000000000000000000000000000000000000000000000000000000073ffffffffffffffffffffffffffffffffffffffff166323b872dd8330846002600089815260200190815260200160002060020154610e1d9190612004565b6040518463ffffffff1660e01b8152600401610e3b93929190611c39565b602060405180830381600087803b158015610e5557600080fd5b505af1158015610e69573d6000803e3d6000fd5b505050506040513d601f19601f82011682018060405250810190610e8d91906117c8565b507f000000000000000000000000000000000000000000000000000000000000000073ffffffffffffffffffffffffffffffffffffffff1663a9059cbb8360026000878152602001908152602001600020600301546040518363ffffffff1660e01b8152600401610eff929190611cee565b602060405180830381600087803b158015610f1957600080fd5b505af1158015610f2d573d6000803e3d6000fd5b505050506040513d601f19601f82011682018060405250810190610f5191906117c8565b508173ffffffffffffffffffffffffffffffffffffffff167f4581989827c7b189a7cab5990f1c47797063ff5f05ae2090ca7900f0bd4c4af9600260008681526020019081526020016000206002015483600260008881526020019081526020016000206003015442604051610fca9493929190611f68565b60405180910390a2505050565b610fdf611601565b610fe9600061167f565b565b60008060009054906101000a900473ffffffffffffffffffffffffffffffffffffffff16905090565b600281565b600a81565b60015481565b62278d0081565b60026020528060005260406000206000915090508060000160009054906101000a900473ffffffffffffffffffffffffffffffffffffffff16908060000160149054906101000a900460ff16908060010160009054906101000a900473ffffffffffffffffffffffffffffffffffffffff16908060010160149054906101000a900460ff16908060020154908060030154908060040160009054906101000a90046fffffffffffffffffffffffffffffffff16908060040160109054906101000a90046fffffffffffffffffffffffffffffffff16905088565b6002600082815260200190815260200160002060000160009054906101000a900473ffffffffffffffffffffffffffffffffffffffff1673ffffffffffffffffffffffffffffffffffffffff163373ffffffffffffffffffffffffffffffffffffffff16146111a9576040517f08c379a00000000000000000000000000000000000000000000000000000000081526004016111a090611eb2565b60405180910390fd5b6002600082815260200190815260200160002060010160149054906101000a900460ff161561120d576040517f08c379a000000000000000000000000000000000000000000000000000000000815260040161120490611e92565b60405180910390fd5b6002600082815260200190815260200160002060000160149054906101000a900460ff168061127f57506002600082815260200190815260200160002060040160109054906101000a90046fffffffffffffffffffffffffffffffff166fffffffffffffffffffffffffffffffff1642115b8061128f575061128e816103f1565b5b6112ce576040517f08c379a00000000000000000000000000000000000000000000000000000000081526004016112c590611db2565b60405180910390fd5b60006112d9826114c7565b905060016002600084815260200190815260200160002060010160146101000a81548160ff0219169083151502179055507f000000000000000000000000000000000000000000000000000000000000000073ffffffffffffffffffffffffffffffffffffffff1663a9059cbb338360026000878152602001908152602001600020600201546113699190612004565b6040518363ffffffff1660e01b8152600401611386929190611cee565b602060405180830381600087803b1580156113a057600080fd5b505af11580156113b4573d6000803e3d6000fd5b505050506040513d601f19601f820116820180604052508101906113d891906117c8565b503373ffffffffffffffffffffffffffffffffffffffff167f23807fdf0313e19d2ace48ab9d2f469e075ce1df9e6fc8625a9e76157400e247600260008581526020019081526020016000206002015483604051611437929190611f08565b60405180910390a25050565b61144b611601565b600073ffffffffffffffffffffffffffffffffffffffff168173ffffffffffffffffffffffffffffffffffffffff1614156114bb576040517f08c379a00000000000000000000000000000000000000000000000000000000081526004016114b290611d92565b60405180910390fd5b6114c48161167f565b50565b6000806064600560026000868152602001908152602001600020600201546114ef91906120d5565b6114f9919061205a565b9050600062278d006fffffffffffffffffffffffffffffffff166002600086815260200190815260200160002060040160009054906101000a90046fffffffffffffffffffffffffffffffff166fffffffffffffffffffffffffffffffff1642611563919061212f565b61156d919061205a565b905060005b81811161159a5782846115859190612004565b93508080611592906121c7565b915050611572565b505050919050565b60006fffffffffffffffffffffffffffffffff80168211156115f9576040517f08c379a00000000000000000000000000000000000000000000000000000000081526004016115f090611d72565b60405180910390fd5b819050919050565b611609611743565b73ffffffffffffffffffffffffffffffffffffffff16611627610feb565b73ffffffffffffffffffffffffffffffffffffffff161461167d576040517f08c379a000000000000000000000000000000000000000000000000000000000815260040161167490611e52565b60405180910390fd5b565b60008060009054906101000a900473ffffffffffffffffffffffffffffffffffffffff169050816000806101000a81548173ffffffffffffffffffffffffffffffffffffffff021916908373ffffffffffffffffffffffffffffffffffffffff1602179055508173ffffffffffffffffffffffffffffffffffffffff168173ffffffffffffffffffffffffffffffffffffffff167f8be0079c531659141344cd1fd0a4f28419497f9722a3daafe3b4186f6b6457e060405160405180910390a35050565b600033905090565b60008135905061175a8161226e565b92915050565b60008151905061176f81612285565b92915050565b6000813590506117848161229c565b92915050565b600081359050611799816122b3565b92915050565b6000602082840312156117b157600080fd5b60006117bf8482850161174b565b91505092915050565b6000602082840312156117da57600080fd5b60006117e884828501611760565b91505092915050565b60006020828403121561180357600080fd5b60006118118482850161178a565b91505092915050565b6000806040838503121561182d57600080fd5b600061183b8582860161178a565b925050602061184c85828601611775565b9150509250929050565b61185f81612163565b82525050565b61186e81612175565b82525050565b6000611881601783611fad565b91507f5665727920736d616c6c20636f6e747269627574696f6e0000000000000000006000830152602082019050919050565b60006118c1600b83611fad565b91507f4c6f616e20636c6f7365640000000000000000000000000000000000000000006000830152602082019050919050565b6000611901600d83611fad565b91507f43617374206f766572666c6f77000000000000000000000000000000000000006000830152602082019050919050565b6000611941602683611fad565b91507f4f776e61626c653a206e6577206f776e657220697320746865207a65726f206160008301527f64647265737300000000000000000000000000000000000000000000000000006020830152604082019050919050565b60006119a7603983611fad565b91507f4c6f616e206d75737420626520696e616374697665206f722072657475726e6560008301527f64206f7220657863656564656420746865206465706f736974000000000000006020830152604082019050919050565b6000611a0d600b83611fad565b91507f4c6f616e20636c616d65640000000000000000000000000000000000000000006000830152602082019050919050565b6000611a4d600f83611fad565b91507f4d696e696d756d2031206d6f6e746800000000000000000000000000000000006000830152602082019050919050565b6000611a8d602083611fad565b91507f496d706f737369626c6520746f2074616b6520796f7572206f776e206c6f616e6000830152602082019050919050565b6000611acd600e83611fad565b91507f4e6f74206120626f72726f7765720000000000000000000000000000000000006000830152602082019050919050565b6000611b0d602083611fad565b91507f4f776e61626c653a2063616c6c6572206973206e6f7420746865206f776e65726000830152602082019050919050565b6000611b4d600d83611fad565b91507f4c6f616e206973207573696e67000000000000000000000000000000000000006000830152602082019050919050565b6000611b8d601983611fad565b91507f496e766573746d656e747320616c72656164792074616b656e000000000000006000830152602082019050919050565b6000611bcd600c83611fad565b91507f4e6f742061206c656e64657200000000000000000000000000000000000000006000830152602082019050919050565b611c0981612181565b82525050565b611c18816121bd565b82525050565b6000602082019050611c336000830184611856565b92915050565b6000606082019050611c4e6000830186611856565b611c5b6020830185611856565b611c686040830184611c0f565b949350505050565b600061010082019050611c86600083018b611856565b611c93602083018a611865565b611ca06040830189611856565b611cad6060830188611865565b611cba6080830187611c0f565b611cc760a0830186611c0f565b611cd460c0830185611c00565b611ce160e0830184611c00565b9998505050505050505050565b6000604082019050611d036000830185611856565b611d106020830184611c0f565b9392505050565b6000602082019050611d2c6000830184611865565b92915050565b60006020820190508181036000830152611d4b81611874565b9050919050565b60006020820190508181036000830152611d6b816118b4565b9050919050565b60006020820190508181036000830152611d8b816118f4565b9050919050565b60006020820190508181036000830152611dab81611934565b9050919050565b60006020820190508181036000830152611dcb8161199a565b9050919050565b60006020820190508181036000830152611deb81611a00565b9050919050565b60006020820190508181036000830152611e0b81611a40565b9050919050565b60006020820190508181036000830152611e2b81611a80565b9050919050565b60006020820190508181036000830152611e4b81611ac0565b9050919050565b60006020820190508181036000830152611e6b81611b00565b9050919050565b60006020820190508181036000830152611e8b81611b40565b9050919050565b60006020820190508181036000830152611eab81611b80565b9050919050565b60006020820190508181036000830152611ecb81611bc0565b9050919050565b6000602082019050611ee76000830184611c00565b92915050565b6000602082019050611f026000830184611c0f565b92915050565b6000604082019050611f1d6000830185611c0f565b611f2a6020830184611c0f565b9392505050565b6000606082019050611f466000830186611c0f565b611f536020830185611c0f565b611f606040830184611c0f565b949350505050565b6000608082019050611f7d6000830187611c0f565b611f8a6020830186611c0f565b611f976040830185611c0f565b611fa46060830184611c0f565b95945050505050565b600082825260208201905092915050565b6000611fc982612181565b9150611fd483612181565b9250826fffffffffffffffffffffffffffffffff03821115611ff957611ff8612210565b5b828201905092915050565b600061200f826121bd565b915061201a836121bd565b9250827fffffffffffffffffffffffffffffffffffffffffffffffffffffffffffffffff0382111561204f5761204e612210565b5b828201905092915050565b6000612065826121bd565b9150612070836121bd565b9250826120805761207f61223f565b5b828204905092915050565b600061209682612181565b91506120a183612181565b9250816fffffffffffffffffffffffffffffffff04831182151516156120ca576120c9612210565b5b828202905092915050565b60006120e0826121bd565b91506120eb836121bd565b9250817fffffffffffffffffffffffffffffffffffffffffffffffffffffffffffffffff048311821515161561212457612123612210565b5b828202905092915050565b600061213a826121bd565b9150612145836121bd565b92508282101561215857612157612210565b5b828203905092915050565b600061216e8261219d565b9050919050565b60008115159050919050565b60006fffffffffffffffffffffffffffffffff82169050919050565b600073ffffffffffffffffffffffffffffffffffffffff82169050919050565b6000819050919050565b60006121d2826121bd565b91507fffffffffffffffffffffffffffffffffffffffffffffffffffffffffffffffff82141561220557612204612210565b5b600182019050919050565b7f4e487b7100000000000000000000000000000000000000000000000000000000600052601160045260246000fd5b7f4e487b7100000000000000000000000000000000000000000000000000000000600052601260045260246000fd5b61227781612163565b811461228257600080fd5b50565b61228e81612175565b811461229957600080fd5b50565b6122a581612181565b81146122b057600080fd5b50565b6122bc816121bd565b81146122c757600080fd5b5056fea26469706673582212203f7e49f9e8c36009a71f81b51a74d70567da77b51254617a31edf1ddd371d9fe64736f6c63430008000033",
  "immutableReferences": {
    "869": [
      {
        "length": 32,
        "start": 1210
      },
      {
        "length": 32,
        "start": 2785
      },
      {
        "length": 32,
        "start": 3519
      },
      {
        "length": 32,
        "start": 4876
      }
    ],
    "872": [
      {
        "length": 32,
        "start": 2609
      },
      {
        "length": 32,
        "start": 3728
      }
    ]
  },
  "source": "// SPDX-License-Identifier: MIT\r\npragma solidity ^0.8.0;\r\n\r\nimport \"@openzeppelin/contracts/access/Ownable.sol\";\r\nimport \"@openzeppelin/contracts/token/ERC20/IERC20.sol\";\r\n\r\n/**\r\n * @title CollateralizedLeverage\r\n */\r\ncontract CollateralizedLeverage is Ownable {\r\n    uint128 public constant MONTH = 30 days;\r\n    uint256 public constant EXCANGE_RATE = 2;\r\n    uint256 public constant MONTH_REWARD_RATE = 5;\r\n    uint256 public constant MONTH_PAYBACK_RATE = 10;\r\n    uint256 public loanId;\r\n    /**\r\n     * @dev Loan structure. The order of the fields in the structure is determined by saving memory cells\r\n     */\r\n    struct Loan {\r\n        address lender;\r\n        bool clamed;\r\n        address borrower;\r\n        bool finished;\r\n        uint256 tokenX;\r\n        uint256 tokenA;\r\n        uint128 timestamp;\r\n        uint128 duration;\r\n    }\r\n    mapping(uint256 => Loan) public loans;\r\n    IERC20 private immutable tokenX;\r\n    IERC20 private immutable tokenA;\r\n\r\n    event AddedToPool(\r\n        address indexed loaner,\r\n        uint256 amount,\r\n        uint256 timestamp\r\n    );\r\n\r\n    event WithdrawedFromPool(\r\n        address indexed loaner,\r\n        uint256 amount,\r\n        uint256 reward\r\n    );\r\n\r\n    event CollateralLoanTaken(\r\n        address indexed borrower,\r\n        uint256 amountX,\r\n        uint256 amountA,\r\n        uint256 timestamp\r\n    );\r\n\r\n    event CollateralLoanReturned(\r\n        address indexed borrower,\r\n        uint256 amountX,\r\n        uint256 paybackX,\r\n        uint256 amountA,\r\n        uint256 timestamp\r\n    );\r\n\r\n    /**\r\n     * @dev Creates a collateralized leverage contract.\r\n     * @param _tokenX address of the IERC20 stable token.\r\n     * @param _tokenA address of the IERC20 collateral token.\r\n     */\r\n    constructor(address _tokenX, address _tokenA) {\r\n        tokenX = IERC20(_tokenX);\r\n        tokenA = IERC20(_tokenA);\r\n    }\r\n\r\n    /**\r\n     * @notice Adds stablecoins from the lender to the lending pool.\r\n     * @param _amountX amount of stable coins\r\n     * @param _duration duration in months of lending period\r\n     */\r\n    function AddToPool(uint256 _amountX, uint128 _duration) external {\r\n        require(_duration > 0, \"Minimum 1 month\");\r\n        require(_amountX > 0, \"Very small contribution\");\r\n\r\n        address loaner = msg.sender;\r\n        tokenX.transferFrom(loaner, address(this), _amountX);\r\n        Loan memory loan = Loan({\r\n            lender: loaner,\r\n            tokenX: _amountX,\r\n            duration: u128(block.timestamp) + (_duration * MONTH),\r\n            timestamp: u128(block.timestamp),\r\n            borrower: address(0x0),\r\n            tokenA: 0,\r\n            clamed: false,\r\n            finished: false\r\n        });\r\n        loans[loanId] = loan;\r\n        loanId++;\r\n\r\n        emit AddedToPool(loaner, _amountX, block.timestamp);\r\n    }\r\n\r\n    /**\r\n     * @notice Returns stablecoins with rewards to the lender\r\n     * @param _id lending-pool loan ID\r\n     */\r\n    function WithdrawFromPool(uint256 _id) external {\r\n        require(msg.sender == loans[_id].lender, \"Not a lender\");\r\n        require(!loans[_id].finished, \"Investments already taken\");\r\n        require(\r\n            loans[_id].clamed ||\r\n                block.timestamp > loans[_id].duration ||\r\n                CollateralLowerThanInterest(_id),\r\n            \"Loan must be inactive or returned or exceeded the deposit\"\r\n        );\r\n\r\n        uint256 reward = CalculateRewards(_id);\r\n        loans[_id].finished = true;\r\n\r\n        tokenX.transfer(msg.sender, loans[_id].tokenX + reward);\r\n\r\n        emit WithdrawedFromPool(msg.sender, loans[_id].tokenX, reward);\r\n    }\r\n\r\n    /**\r\n     * @notice Calculate rewards to the lender. Based on retention period and interest rate.\r\n     * @param _id lending-pool loan ID\r\n     */\r\n    function CalculateRewards(uint256 _id)\r\n        public\r\n        view\r\n        returns (uint256 amount)\r\n    {\r\n        uint256 rewardPerMonth = (loans[_id].tokenX * MONTH_REWARD_RATE) / 100;\r\n        uint256 monthsNum = (block.timestamp - loans[_id].timestamp) / MONTH;\r\n        for (uint256 i = 0; i <= monthsNum; i++) {\r\n            amount += rewardPerMonth;\r\n        }\r\n    }\r\n\r\n    /**\r\n     * @notice Allows the borrower to borrow a specific loan from the pool. Needed collateral.\r\n     * @param _id lending-pool loan ID\r\n     */\r\n    function TakeCollateralLoan(uint256 _id) external {\r\n        address borrower = msg.sender;\r\n        require(\r\n            borrower != loans[_id].lender,\r\n            \"Impossible to take your own loan\"\r\n        );\r\n        require(loans[_id].timestamp == 0, \"Loan is using\");\r\n\r\n        uint256 amountA = loans[_id].tokenX * EXCANGE_RATE;\r\n        loans[_id].borrower = borrower;\r\n        loans[_id].tokenA = amountA;\r\n        loans[_id].timestamp = u128(block.timestamp);\r\n\r\n        tokenA.transferFrom(borrower, address(this), amountA);\r\n        tokenX.transfer(borrower, loans[_id].tokenX);\r\n\r\n        emit CollateralLoanTaken(\r\n            borrower,\r\n            loans[_id].tokenX,\r\n            amountA,\r\n            block.timestamp\r\n        );\r\n    }\r\n\r\n    /**\r\n     * @notice Repayment by the borrower of the loan taken and return of the collateral\r\n     * @param _id lending-pool loan ID\r\n     */\r\n    function Payback(uint256 _id) external {\r\n        address borrower = msg.sender;\r\n        require(!loans[_id].clamed, \"Loan clamed\");\r\n        require(!loans[_id].finished, \"Loan closed\");\r\n        require(loans[_id].borrower == borrower, \"Not a borrower\");\r\n\r\n        uint256 loanFee = CalculateLoanFee(_id);\r\n        loans[_id].clamed = true;\r\n        tokenX.transferFrom(\r\n            borrower,\r\n            address(this),\r\n            loans[_id].tokenX + loanFee\r\n        );\r\n        tokenA.transfer(borrower, loans[_id].tokenA);\r\n\r\n        emit CollateralLoanReturned(\r\n            borrower,\r\n            loans[_id].tokenX,\r\n            loanFee,\r\n            loans[_id].tokenA,\r\n            block.timestamp\r\n        );\r\n    }\r\n\r\n    /**\r\n     * @notice Calculate loan fee to the borrower. Based on retention period and loan fee rate.\r\n     * @param _id lending-pool loan ID\r\n     */\r\n    function CalculateLoanFee(uint256 _id)\r\n        public\r\n        view\r\n        returns (uint256 amount)\r\n    {\r\n        uint256 loanFeePerMonth = (loans[_id].tokenX * MONTH_PAYBACK_RATE) /\r\n            100;\r\n        uint256 monthsNum = (block.timestamp - loans[_id].timestamp) / MONTH;\r\n        for (uint256 i = 0; i <= monthsNum; i++) {\r\n            amount += loanFeePerMonth;\r\n        }\r\n    }\r\n\r\n    /**\r\n     * @notice Safely cast an uint256 to an uint128\r\n     * @param x convertible number\r\n     */\r\n    function u128(uint256 x) internal pure returns (uint128 y) {\r\n        require(x <= type(uint128).max, \"Cast overflow\");\r\n        y = uint128(x);\r\n    }\r\n\r\n    // BONUS: Can we add a check that allows the lender to take the collateral before the end of the lock period in case the previous situation applies?\r\n    // ANSWER: Yes\r\n    /**\r\n     * @notice Determines if the loan fee exceeded the collateral\r\n     * @param _id lending-pool loan ID\r\n     */\r\n    function CollateralLowerThanInterest(uint256 _id)\r\n        public\r\n        view\r\n        returns (bool lower)\r\n    {\r\n        lower = CalculateLoanFee(_id) > loans[_id].tokenX;\r\n    }\r\n\r\n    // BONUS: Assuming that the exchange rate between token A and token X will be the same. What is the maximum period it is advised to issue a loan? I.E. Is there a moment where collateral will be lower than principal+interest?\r\n    // ANSWER: With the condition that the interest is 10%, after 10 months the deposit will be less than collateral (10% * 10 = 100%)\r\n}\r\n",
  "sourcePath": "D:\\react\\github\\CollateraizedLeverageContract\\contracts\\CollateralizedLeverage.sol",
  "compiler": {
    "name": "solc",
    "version": "0.8.0+commit.c7dfd78e.Emscripten.clang"
  },
  "schemaVersion": "3.4.7",
  "updatedAt": "2022-09-16T18:12:06.843Z",
  "devdoc": {
    "kind": "dev",
    "methods": {
      "AddToPool(uint256,uint128)": {
        "params": {
          "_amountX": "amount of stable coins",
          "_duration": "duration in months of lending period"
        }
      },
      "CalculateLoanFee(uint256)": {
        "params": {
          "_id": "lending-pool loan ID"
        }
      },
      "CalculateRewards(uint256)": {
        "params": {
          "_id": "lending-pool loan ID"
        }
      },
      "CollateralLowerThanInterest(uint256)": {
        "params": {
          "_id": "lending-pool loan ID"
        }
      },
      "Payback(uint256)": {
        "params": {
          "_id": "lending-pool loan ID"
        }
      },
      "TakeCollateralLoan(uint256)": {
        "params": {
          "_id": "lending-pool loan ID"
        }
      },
      "WithdrawFromPool(uint256)": {
        "params": {
          "_id": "lending-pool loan ID"
        }
      },
      "constructor": {
        "details": "Creates a collateralized leverage contract.",
        "params": {
          "_tokenA": "address of the IERC20 collateral token.",
          "_tokenX": "address of the IERC20 stable token."
        }
      },
      "owner()": {
        "details": "Returns the address of the current owner."
      },
      "renounceOwnership()": {
        "details": "Leaves the contract without owner. It will not be possible to call `onlyOwner` functions anymore. Can only be called by the current owner. NOTE: Renouncing ownership will leave the contract without an owner, thereby removing any functionality that is only available to the owner."
      },
      "transferOwnership(address)": {
        "details": "Transfers ownership of the contract to a new account (`newOwner`). Can only be called by the current owner."
      }
    },
    "title": "CollateralizedLeverage",
    "version": 1
  },
  "userdoc": {
    "kind": "user",
    "methods": {
      "AddToPool(uint256,uint128)": {
        "notice": "Adds stablecoins from the lender to the lending pool."
      },
      "CalculateLoanFee(uint256)": {
        "notice": "Calculate loan fee to the borrower. Based on retention period and loan fee rate."
      },
      "CalculateRewards(uint256)": {
        "notice": "Calculate rewards to the lender. Based on retention period and interest rate."
      },
      "CollateralLowerThanInterest(uint256)": {
        "notice": "Determines if the loan fee exceeded the collateral"
      },
      "Payback(uint256)": {
        "notice": "Repayment by the borrower of the loan taken and return of the collateral"
      },
      "TakeCollateralLoan(uint256)": {
        "notice": "Allows the borrower to borrow a specific loan from the pool. Needed collateral."
      },
      "WithdrawFromPool(uint256)": {
        "notice": "Returns stablecoins with rewards to the lender"
      }
    },
    "version": 1
  }
}