{
  "contractName": "CollateralizedLeverage_pool",
  "abi": [
    {
      "inputs": [
        {
          "internalType": "address",
          "name": "_tokenX",
          "type": "address"
        },
        {
          "internalType": "address",
          "name": "_tokenA",
          "type": "address"
        }
      ],
      "stateMutability": "nonpayable",
      "type": "constructor"
    },
    {
      "anonymous": false,
      "inputs": [
        {
          "indexed": true,
          "internalType": "address",
          "name": "loaner",
          "type": "address"
        },
        {
          "indexed": false,
          "internalType": "uint256",
          "name": "amount",
          "type": "uint256"
        },
        {
          "indexed": false,
          "internalType": "uint256",
          "name": "timestamp",
          "type": "uint256"
        }
      ],
      "name": "AddedToPool",
      "type": "event"
    },
    {
      "anonymous": false,
      "inputs": [
        {
          "indexed": true,
          "internalType": "address",
          "name": "borrower",
          "type": "address"
        },
        {
          "indexed": false,
          "internalType": "uint256",
          "name": "amountX",
          "type": "uint256"
        },
        {
          "indexed": false,
          "internalType": "uint256",
          "name": "paybackX",
          "type": "uint256"
        },
        {
          "indexed": false,
          "internalType": "uint256",
          "name": "amountA",
          "type": "uint256"
        },
        {
          "indexed": false,
          "internalType": "uint256",
          "name": "timestamp",
          "type": "uint256"
        }
      ],
      "name": "CollateralLoanRenewed",
      "type": "event"
    },
    {
      "anonymous": false,
      "inputs": [
        {
          "indexed": true,
          "internalType": "address",
          "name": "borrower",
          "type": "address"
        },
        {
          "indexed": false,
          "internalType": "uint256",
          "name": "amountX",
          "type": "uint256"
        },
        {
          "indexed": false,
          "internalType": "uint256",
          "name": "paybackX",
          "type": "uint256"
        },
        {
          "indexed": false,
          "internalType": "uint256",
          "name": "amountA",
          "type": "uint256"
        },
        {
          "indexed": false,
          "internalType": "uint256",
          "name": "timestamp",
          "type": "uint256"
        }
      ],
      "name": "CollateralLoanReturned",
      "type": "event"
    },
    {
      "anonymous": false,
      "inputs": [
        {
          "indexed": true,
          "internalType": "address",
          "name": "borrower",
          "type": "address"
        },
        {
          "indexed": false,
          "internalType": "uint256",
          "name": "amountX",
          "type": "uint256"
        },
        {
          "indexed": false,
          "internalType": "uint256",
          "name": "amountA",
          "type": "uint256"
        },
        {
          "indexed": false,
          "internalType": "uint256",
          "name": "timestamp",
          "type": "uint256"
        }
      ],
      "name": "CollateralLoanTaken",
      "type": "event"
    },
    {
      "anonymous": false,
      "inputs": [
        {
          "indexed": true,
          "internalType": "address",
          "name": "previousOwner",
          "type": "address"
        },
        {
          "indexed": true,
          "internalType": "address",
          "name": "newOwner",
          "type": "address"
        }
      ],
      "name": "OwnershipTransferred",
      "type": "event"
    },
    {
      "anonymous": false,
      "inputs": [
        {
          "indexed": true,
          "internalType": "address",
          "name": "loaner",
          "type": "address"
        },
        {
          "indexed": false,
          "internalType": "uint256",
          "name": "amount",
          "type": "uint256"
        },
        {
          "indexed": false,
          "internalType": "uint256",
          "name": "reward",
          "type": "uint256"
        }
      ],
      "name": "WithdrawedFromPool",
      "type": "event"
    },
    {
      "inputs": [],
      "name": "EXCANGE_RATE",
      "outputs": [
        {
          "internalType": "uint256",
          "name": "",
          "type": "uint256"
        }
      ],
      "stateMutability": "view",
      "type": "function"
    },
    {
      "inputs": [],
      "name": "MONTH",
      "outputs": [
        {
          "internalType": "uint256",
          "name": "",
          "type": "uint256"
        }
      ],
      "stateMutability": "view",
      "type": "function"
    },
    {
      "inputs": [],
      "name": "MONTH_INTEREST_RATE",
      "outputs": [
        {
          "internalType": "uint256",
          "name": "",
          "type": "uint256"
        }
      ],
      "stateMutability": "view",
      "type": "function"
    },
    {
      "inputs": [],
      "name": "MONTH_RETURN_RATE",
      "outputs": [
        {
          "internalType": "uint256",
          "name": "",
          "type": "uint256"
        }
      ],
      "stateMutability": "view",
      "type": "function"
    },
    {
      "inputs": [
        {
          "internalType": "address",
          "name": "",
          "type": "address"
        },
        {
          "internalType": "uint256",
          "name": "",
          "type": "uint256"
        }
      ],
      "name": "loans",
      "outputs": [
        {
          "internalType": "uint256",
          "name": "amountX",
          "type": "uint256"
        },
        {
          "internalType": "uint256",
          "name": "amountA",
          "type": "uint256"
        },
        {
          "internalType": "uint128",
          "name": "startDate",
          "type": "uint128"
        },
        {
          "internalType": "uint128",
          "name": "duration",
          "type": "uint128"
        }
      ],
      "stateMutability": "view",
      "type": "function"
    },
    {
      "inputs": [],
      "name": "owner",
      "outputs": [
        {
          "internalType": "address",
          "name": "",
          "type": "address"
        }
      ],
      "stateMutability": "view",
      "type": "function"
    },
    {
      "inputs": [
        {
          "internalType": "address",
          "name": "",
          "type": "address"
        }
      ],
      "name": "pool",
      "outputs": [
        {
          "internalType": "uint256",
          "name": "amount",
          "type": "uint256"
        },
        {
          "internalType": "uint256",
          "name": "timestamp",
          "type": "uint256"
        },
        {
          "internalType": "uint256",
          "name": "reward",
          "type": "uint256"
        }
      ],
      "stateMutability": "view",
      "type": "function"
    },
    {
      "inputs": [],
      "name": "renounceOwnership",
      "outputs": [],
      "stateMutability": "nonpayable",
      "type": "function"
    },
    {
      "inputs": [
        {
          "internalType": "address",
          "name": "newOwner",
          "type": "address"
        }
      ],
      "name": "transferOwnership",
      "outputs": [],
      "stateMutability": "nonpayable",
      "type": "function"
    },
    {
      "inputs": [
        {
          "internalType": "uint256",
          "name": "_amountTokenX",
          "type": "uint256"
        }
      ],
      "name": "AddToPool",
      "outputs": [],
      "stateMutability": "nonpayable",
      "type": "function"
    },
    {
      "inputs": [
        {
          "internalType": "uint256",
          "name": "_amountTokenX",
          "type": "uint256"
        }
      ],
      "name": "withdrawFromPool",
      "outputs": [],
      "stateMutability": "nonpayable",
      "type": "function"
    },
    {
      "inputs": [
        {
          "internalType": "address",
          "name": "_loaner",
          "type": "address"
        }
      ],
      "name": "getPoolAmountForLoaner",
      "outputs": [
        {
          "internalType": "uint256",
          "name": "",
          "type": "uint256"
        }
      ],
      "stateMutability": "view",
      "type": "function"
    },
    {
      "inputs": [
        {
          "internalType": "address",
          "name": "_loaner",
          "type": "address"
        }
      ],
      "name": "getPoolRewardForLoaner",
      "outputs": [
        {
          "internalType": "uint256",
          "name": "",
          "type": "uint256"
        }
      ],
      "stateMutability": "view",
      "type": "function"
    },
    {
      "inputs": [
        {
          "internalType": "uint256",
          "name": "_amountTokenA",
          "type": "uint256"
        },
        {
          "internalType": "uint128",
          "name": "_duration",
          "type": "uint128"
        }
      ],
      "name": "takeCollateralLoan",
      "outputs": [],
      "stateMutability": "nonpayable",
      "type": "function"
    },
    {
      "inputs": [
        {
          "internalType": "uint256",
          "name": "_loanID",
          "type": "uint256"
        }
      ],
      "name": "returnCollateralLoan",
      "outputs": [],
      "stateMutability": "nonpayable",
      "type": "function"
    },
    {
      "inputs": [
        {
          "internalType": "uint256",
          "name": "_loanID",
          "type": "uint256"
        }
      ],
      "name": "returnCollateralLoanAheadOfSchedule",
      "outputs": [],
      "stateMutability": "nonpayable",
      "type": "function"
    },
    {
      "inputs": [
        {
          "internalType": "uint256",
          "name": "_loanID",
          "type": "uint256"
        },
        {
          "internalType": "uint128",
          "name": "_newDuration",
          "type": "uint128"
        }
      ],
      "name": "renewCollateralLoan",
      "outputs": [],
      "stateMutability": "nonpayable",
      "type": "function"
    },
    {
      "inputs": [
        {
          "internalType": "uint256",
          "name": "_loanID",
          "type": "uint256"
        }
      ],
      "name": "CollateralLowerThanInterest",
      "outputs": [
        {
          "internalType": "bool",
          "name": "",
          "type": "bool"
        }
      ],
      "stateMutability": "view",
      "type": "function"
    }
  ],
  "bytecode": "0x60c06040523480156200001157600080fd5b5060405162002d7738038062002d778339818101604052810190620000379190620001b0565b620000576200004b620000cd60201b60201c565b620000d560201b60201c565b8173ffffffffffffffffffffffffffffffffffffffff1660808173ffffffffffffffffffffffffffffffffffffffff1660601b815250508073ffffffffffffffffffffffffffffffffffffffff1660a08173ffffffffffffffffffffffffffffffffffffffff1660601b8152505050506200023f565b600033905090565b60008060009054906101000a900473ffffffffffffffffffffffffffffffffffffffff169050816000806101000a81548173ffffffffffffffffffffffffffffffffffffffff021916908373ffffffffffffffffffffffffffffffffffffffff1602179055508173ffffffffffffffffffffffffffffffffffffffff168173ffffffffffffffffffffffffffffffffffffffff167f8be0079c531659141344cd1fd0a4f28419497f9722a3daafe3b4186f6b6457e060405160405180910390a35050565b600081519050620001aa8162000225565b92915050565b60008060408385031215620001c457600080fd5b6000620001d48582860162000199565b9250506020620001e78582860162000199565b9150509250929050565b6000620001fe8262000205565b9050919050565b600073ffffffffffffffffffffffffffffffffffffffff82169050919050565b6200023081620001f1565b81146200023c57600080fd5b50565b60805160601c60a05160601c612adb6200029c600039600081816114f50152611c3f0152600081816108a701528181610ae701528181610c82015281816110ee0152818161143601528181611a0c0152611cef0152612adb6000f3fe608060405234801561001057600080fd5b50600436106101165760003560e01c8063a3a3a9e2116100a2578063bef33a3d11610071578063bef33a3d146102e6578063c5ab8c1714610302578063d5999a5c1461031e578063f2fde38b1461033c578063fa5fc9d61461035857610116565b8063a3a3a9e214610270578063a516584b1461028e578063a5b2bea0146102ac578063abcff311146102c857610116565b806337f863df116100e957806337f863df146101b55780635f5743b1146101e5578063715018a6146102155780638da5cb5b1461021f57806398c61c371461023d57610116565b8063156522a81461011b57806321ff62ed1461014d578063276dd3e21461017d57806330fc43ed14610199575b600080fd5b610135600480360381019061013091906120f9565b610374565b60405161014493929190612756565b60405180910390f35b61016760048036038101906101629190612187565b61039e565b6040516101749190612572565b60405180910390f35b610197600480360381019061019291906121d9565b6104f8565b005b6101b360048036038101906101ae9190612187565b6109b8565b005b6101cf60048036038101906101ca91906120f9565b610d85565b6040516101dc91906126cd565b60405180910390f35b6101ff60048036038101906101fa91906120f9565b610e27565b60405161020c91906126cd565b60405180910390f35b61021d610e73565b005b610227610e87565b60405161023491906124f7565b60405180910390f35b61025760048036038101906102529190612122565b610eb0565b6040516102679493929190612711565b60405180910390f35b610278610f35565b60405161028591906126cd565b60405180910390f35b610296610f3a565b6040516102a391906126cd565b60405180910390f35b6102c660048036038101906102c19190612187565b610f3f565b005b6102d06111f2565b6040516102dd91906126cd565b60405180910390f35b61030060048036038101906102fb9190612187565b6111f7565b005b61031c60048036038101906103179190612187565b6111fa565b005b610326611910565b60405161033391906126cd565b60405180910390f35b610356600480360381019061035191906120f9565b611917565b005b610372600480360381019061036d91906121d9565b61199b565b005b60016020528060005260406000206000915090508060000154908060010154908060020154905083565b6000803390506000600260008373ffffffffffffffffffffffffffffffffffffffff1673ffffffffffffffffffffffffffffffffffffffff168152602001908152602001600020848154811061041d577f4e487b7100000000000000000000000000000000000000000000000000000000600052603260045260246000fd5b906000526020600020906003020160405180608001604052908160008201548152602001600182015481526020016002820160009054906101000a90046fffffffffffffffffffffffffffffffff166fffffffffffffffffffffffffffffffff166fffffffffffffffffffffffffffffffff1681526020016002820160109054906101000a90046fffffffffffffffffffffffffffffffff166fffffffffffffffffffffffffffffffff166fffffffffffffffffffffffffffffffff1681525050905080600001516104ee82611df3565b1192505050919050565b62278d00816fffffffffffffffffffffffffffffffff161015610550576040517f08c379a00000000000000000000000000000000000000000000000000000000081526004016105479061262d565b60405180910390fd5b6000339050600260008273ffffffffffffffffffffffffffffffffffffffff1673ffffffffffffffffffffffffffffffffffffffff1681526020019081526020016000208054905083106105d9576040517f08c379a00000000000000000000000000000000000000000000000000000000081526004016105d09061264d565b60405180910390fd5b6000600260008373ffffffffffffffffffffffffffffffffffffffff1673ffffffffffffffffffffffffffffffffffffffff1681526020019081526020016000208481548110610652577f4e487b7100000000000000000000000000000000000000000000000000000000600052603260045260246000fd5b906000526020600020906003020160405180608001604052908160008201548152602001600182015481526020016002820160009054906101000a90046fffffffffffffffffffffffffffffffff166fffffffffffffffffffffffffffffffff166fffffffffffffffffffffffffffffffff1681526020016002820160109054906101000a90046fffffffffffffffffffffffffffffffff166fffffffffffffffffffffffffffffffff166fffffffffffffffffffffffffffffffff16815250509050600061072082611df3565b905061072b42611e82565b82604001906fffffffffffffffffffffffffffffffff1690816fffffffffffffffffffffffffffffffff16815250508382606001906fffffffffffffffffffffffffffffffff1690816fffffffffffffffffffffffffffffffff168152505081600260008573ffffffffffffffffffffffffffffffffffffffff1673ffffffffffffffffffffffffffffffffffffffff1681526020019081526020016000208681548110610802577f4e487b7100000000000000000000000000000000000000000000000000000000600052603260045260246000fd5b9060005260206000209060030201600082015181600001556020820151816001015560408201518160020160006101000a8154816fffffffffffffffffffffffffffffffff02191690836fffffffffffffffffffffffffffffffff16021790555060608201518160020160106101000a8154816fffffffffffffffffffffffffffffffff02191690836fffffffffffffffffffffffffffffffff1602179055509050507f000000000000000000000000000000000000000000000000000000000000000073ffffffffffffffffffffffffffffffffffffffff166323b872dd8430846040518463ffffffff1660e01b815260040161090293929190612512565b602060405180830381600087803b15801561091c57600080fd5b505af1158015610930573d6000803e3d6000fd5b505050506040513d601f19601f82011682018060405250810190610954919061215e565b508273ffffffffffffffffffffffffffffffffffffffff167f1c57aa2d7412c857018c02f048ab625099c596ffb0d0e5ae898c7d47487726568360000151838560200151426040516109a9949392919061278d565b60405180910390a25050505050565b60003390506000600160008373ffffffffffffffffffffffffffffffffffffffff1673ffffffffffffffffffffffffffffffffffffffff16815260200190815260200160002060405180606001604052908160008201548152602001600182015481526020016002820154815250509050600081600001511415610a71576040517f08c379a0000000000000000000000000000000000000000000000000000000008152600401610a689061268d565b60405180910390fd5b8281600001511015610ab8576040517f08c379a0000000000000000000000000000000000000000000000000000000008152600401610aaf906125cd565b60405180910390fd5b6000610ad78260000151836020015142610ad2919061290a565b611ee1565b90508084610ae59190612829565b7f000000000000000000000000000000000000000000000000000000000000000073ffffffffffffffffffffffffffffffffffffffff166370a08231306040518263ffffffff1660e01b8152600401610b3e91906124f7565b60206040518083038186803b158015610b5657600080fd5b505afa158015610b6a573d6000803e3d6000fd5b505050506040513d601f19601f82011682018060405250810190610b8e91906121b0565b1015610bcf576040517f08c379a0000000000000000000000000000000000000000000000000000000008152600401610bc69061266d565b60405180910390fd5b838260000151610bdf919061290a565b82600001818152505042826020018181525050816040015181610c029190612829565b9050600082604001818152505081600160008573ffffffffffffffffffffffffffffffffffffffff1673ffffffffffffffffffffffffffffffffffffffff16815260200190815260200160002060008201518160000155602082015181600101556040820151816002015590505060008185610c7e9190612829565b90507f000000000000000000000000000000000000000000000000000000000000000073ffffffffffffffffffffffffffffffffffffffff1663a9059cbb85836040518363ffffffff1660e01b8152600401610cdb929190612549565b602060405180830381600087803b158015610cf557600080fd5b505af1158015610d09573d6000803e3d6000fd5b505050506040513d601f19601f82011682018060405250810190610d2d919061215e565b508373ffffffffffffffffffffffffffffffffffffffff167f23807fdf0313e19d2ace48ab9d2f469e075ce1df9e6fc8625a9e76157400e2478684604051610d769291906126e8565b60405180910390a25050505050565b6000610e20600160008473ffffffffffffffffffffffffffffffffffffffff1673ffffffffffffffffffffffffffffffffffffffff16815260200190815260200160002060000154600160008573ffffffffffffffffffffffffffffffffffffffff1673ffffffffffffffffffffffffffffffffffffffff1681526020019081526020016000206001015442610e1b919061290a565b611ee1565b9050919050565b6000600160008373ffffffffffffffffffffffffffffffffffffffff1673ffffffffffffffffffffffffffffffffffffffff168152602001908152602001600020600001549050919050565b610e7b611f46565b610e856000611fc4565b565b60008060009054906101000a900473ffffffffffffffffffffffffffffffffffffffff16905090565b60026020528160005260406000208181548110610ecc57600080fd5b9060005260206000209060030201600091509150508060000154908060010154908060020160009054906101000a90046fffffffffffffffffffffffffffffffff16908060020160109054906101000a90046fffffffffffffffffffffffffffffffff16905084565b600a81565b600281565b60008111610f82576040517f08c379a0000000000000000000000000000000000000000000000000000000008152600401610f79906125ed565b60405180910390fd5b60003390506000600160008373ffffffffffffffffffffffffffffffffffffffff1673ffffffffffffffffffffffffffffffffffffffff16815260200190815260200160002060405180606001604052908160008201548152602001600182015481526020016002820154815250509050600080600160008573ffffffffffffffffffffffffffffffffffffffff1673ffffffffffffffffffffffffffffffffffffffff168152602001908152602001600020600001541461105e5761105b8260000151836020015142611056919061290a565b611ee1565b90505b83826000015161106e9190612829565b826000018181525050428260200181815250508082604001818152505081600160008573ffffffffffffffffffffffffffffffffffffffff1673ffffffffffffffffffffffffffffffffffffffff1681526020019081526020016000206000820151816000015560208201518160010155604082015181600201559050507f000000000000000000000000000000000000000000000000000000000000000073ffffffffffffffffffffffffffffffffffffffff166323b872dd8430876040518463ffffffff1660e01b815260040161114993929190612512565b602060405180830381600087803b15801561116357600080fd5b505af1158015611177573d6000803e3d6000fd5b505050506040513d601f19601f8201168201806040525081019061119b919061215e565b508273ffffffffffffffffffffffffffffffffffffffff167f742b8479ca612f176ac7c33a650954a83d0d97cab37c33d611f1d6aa8bb14ba085426040516111e49291906126e8565b60405180910390a250505050565b600581565b50565b6000339050600260008273ffffffffffffffffffffffffffffffffffffffff1673ffffffffffffffffffffffffffffffffffffffff168152602001908152602001600020805490508210611283576040517f08c379a000000000000000000000000000000000000000000000000000000000815260040161127a9061264d565b60405180910390fd5b6000600260008373ffffffffffffffffffffffffffffffffffffffff1673ffffffffffffffffffffffffffffffffffffffff16815260200190815260200160002083815481106112fc577f4e487b7100000000000000000000000000000000000000000000000000000000600052603260045260246000fd5b906000526020600020906003020160405180608001604052908160008201548152602001600182015481526020016002820160009054906101000a90046fffffffffffffffffffffffffffffffff166fffffffffffffffffffffffffffffffff166fffffffffffffffffffffffffffffffff1681526020016002820160109054906101000a90046fffffffffffffffffffffffffffffffff166fffffffffffffffffffffffffffffffff166fffffffffffffffffffffffffffffffff16815250509050806060015181604001516113d391906127e3565b6fffffffffffffffffffffffffffffffff16421115611427576040517f08c379a000000000000000000000000000000000000000000000000000000000815260040161141e9061260d565b60405180910390fd5b600061143282611df3565b90507f000000000000000000000000000000000000000000000000000000000000000073ffffffffffffffffffffffffffffffffffffffff166323b872dd84308486600001516114829190612829565b6040518463ffffffff1660e01b81526004016114a093929190612512565b602060405180830381600087803b1580156114ba57600080fd5b505af11580156114ce573d6000803e3d6000fd5b505050506040513d601f19601f820116820180604052508101906114f2919061215e565b507f000000000000000000000000000000000000000000000000000000000000000073ffffffffffffffffffffffffffffffffffffffff1663a9059cbb8484602001516040518363ffffffff1660e01b8152600401611552929190612549565b602060405180830381600087803b15801561156c57600080fd5b505af1158015611580573d6000803e3d6000fd5b505050506040513d601f19601f820116820180604052508101906115a4919061215e565b50600260008473ffffffffffffffffffffffffffffffffffffffff1673ffffffffffffffffffffffffffffffffffffffff1681526020019081526020016000206001600260008673ffffffffffffffffffffffffffffffffffffffff1673ffffffffffffffffffffffffffffffffffffffff16815260200190815260200160002080549050611633919061290a565b8154811061166a577f4e487b7100000000000000000000000000000000000000000000000000000000600052603260045260246000fd5b9060005260206000209060030201600260008573ffffffffffffffffffffffffffffffffffffffff1673ffffffffffffffffffffffffffffffffffffffff16815260200190815260200160002085815481106116ef577f4e487b7100000000000000000000000000000000000000000000000000000000600052603260045260246000fd5b906000526020600020906003020160008201548160000155600182015481600101556002820160009054906101000a90046fffffffffffffffffffffffffffffffff168160020160006101000a8154816fffffffffffffffffffffffffffffffff02191690836fffffffffffffffffffffffffffffffff1602179055506002820160109054906101000a90046fffffffffffffffffffffffffffffffff168160020160106101000a8154816fffffffffffffffffffffffffffffffff02191690836fffffffffffffffffffffffffffffffff160217905550905050600260008473ffffffffffffffffffffffffffffffffffffffff1673ffffffffffffffffffffffffffffffffffffffff16815260200190815260200160002080548061183f577f4e487b7100000000000000000000000000000000000000000000000000000000600052603160045260246000fd5b600190038181906000526020600020906003020160008082016000905560018201600090556002820160006101000a8154906fffffffffffffffffffffffffffffffff02191690556002820160106101000a8154906fffffffffffffffffffffffffffffffff0219169055505090558273ffffffffffffffffffffffffffffffffffffffff167f4581989827c7b189a7cab5990f1c47797063ff5f05ae2090ca7900f0bd4c4af9836000015183856020015142604051611902949392919061278d565b60405180910390a250505050565b62278d0081565b61191f611f46565b600073ffffffffffffffffffffffffffffffffffffffff168173ffffffffffffffffffffffffffffffffffffffff16141561198f576040517f08c379a0000000000000000000000000000000000000000000000000000000008152600401611986906125ad565b60405180910390fd5b61199881611fc4565b50565b62278d00816fffffffffffffffffffffffffffffffff1610156119f3576040517f08c379a00000000000000000000000000000000000000000000000000000000081526004016119ea9061262d565b60405180910390fd5b60003390506000600284611a07919061287f565b9050807f000000000000000000000000000000000000000000000000000000000000000073ffffffffffffffffffffffffffffffffffffffff166370a08231306040518263ffffffff1660e01b8152600401611a6391906124f7565b60206040518083038186803b158015611a7b57600080fd5b505afa158015611a8f573d6000803e3d6000fd5b505050506040513d601f19601f82011682018060405250810190611ab391906121b0565b1015611af4576040517f08c379a0000000000000000000000000000000000000000000000000000000008152600401611aeb9061266d565b60405180910390fd5b600260008373ffffffffffffffffffffffffffffffffffffffff1673ffffffffffffffffffffffffffffffffffffffff1681526020019081526020016000206040518060800160405280838152602001868152602001611b5342611e82565b6fffffffffffffffffffffffffffffffff168152602001856fffffffffffffffffffffffffffffffff168152509080600181540180825580915050600190039060005260206000209060030201600090919091909150600082015181600001556020820151816001015560408201518160020160006101000a8154816fffffffffffffffffffffffffffffffff02191690836fffffffffffffffffffffffffffffffff16021790555060608201518160020160106101000a8154816fffffffffffffffffffffffffffffffff02191690836fffffffffffffffffffffffffffffffff16021790555050507f000000000000000000000000000000000000000000000000000000000000000073ffffffffffffffffffffffffffffffffffffffff166323b872dd8330876040518463ffffffff1660e01b8152600401611c9a93929190612512565b602060405180830381600087803b158015611cb457600080fd5b505af1158015611cc8573d6000803e3d6000fd5b505050506040513d601f19601f82011682018060405250810190611cec919061215e565b507f000000000000000000000000000000000000000000000000000000000000000073ffffffffffffffffffffffffffffffffffffffff1663a9059cbb83836040518363ffffffff1660e01b8152600401611d48929190612549565b602060405180830381600087803b158015611d6257600080fd5b505af1158015611d76573d6000803e3d6000fd5b505050506040513d601f19601f82011682018060405250810190611d9a919061215e565b508173ffffffffffffffffffffffffffffffffffffffff167f417a30adc5c0380169594ad0321d0bedba23dac4f8dad4bf59a40a769a0534ef828642604051611de593929190612756565b60405180910390a250505050565b60008082604001516fffffffffffffffffffffffffffffffff1642611e18919061290a565b905060006064600a8560000151611e2f91906128b0565b611e39919061287f565b9050600062278d0083611e4c919061287f565b905060005b818111611e79578285611e649190612829565b94508080611e71906129a2565b915050611e51565b50505050919050565b60006fffffffffffffffffffffffffffffffff8016821115611ed9576040517f08c379a0000000000000000000000000000000000000000000000000000000008152600401611ed09061258d565b60405180910390fd5b819050919050565b6000806064600585611ef391906128b0565b611efd919061287f565b9050600062278d0084611f10919061287f565b905060005b818111611f3d578284611f289190612829565b93508080611f35906129a2565b915050611f15565b50505092915050565b611f4e612088565b73ffffffffffffffffffffffffffffffffffffffff16611f6c610e87565b73ffffffffffffffffffffffffffffffffffffffff1614611fc2576040517f08c379a0000000000000000000000000000000000000000000000000000000008152600401611fb9906126ad565b60405180910390fd5b565b60008060009054906101000a900473ffffffffffffffffffffffffffffffffffffffff169050816000806101000a81548173ffffffffffffffffffffffffffffffffffffffff021916908373ffffffffffffffffffffffffffffffffffffffff1602179055508173ffffffffffffffffffffffffffffffffffffffff168173ffffffffffffffffffffffffffffffffffffffff167f8be0079c531659141344cd1fd0a4f28419497f9722a3daafe3b4186f6b6457e060405160405180910390a35050565b600033905090565b60008135905061209f81612a49565b92915050565b6000815190506120b481612a60565b92915050565b6000813590506120c981612a77565b92915050565b6000813590506120de81612a8e565b92915050565b6000815190506120f381612a8e565b92915050565b60006020828403121561210b57600080fd5b600061211984828501612090565b91505092915050565b6000806040838503121561213557600080fd5b600061214385828601612090565b9250506020612154858286016120cf565b9150509250929050565b60006020828403121561217057600080fd5b600061217e848285016120a5565b91505092915050565b60006020828403121561219957600080fd5b60006121a7848285016120cf565b91505092915050565b6000602082840312156121c257600080fd5b60006121d0848285016120e4565b91505092915050565b600080604083850312156121ec57600080fd5b60006121fa858286016120cf565b925050602061220b858286016120ba565b9150509250929050565b61221e8161293e565b82525050565b61222d81612950565b82525050565b6000612240600d836127d2565b91507f43617374206f766572666c6f77000000000000000000000000000000000000006000830152602082019050919050565b60006122806026836127d2565b91507f4f776e61626c653a206e6577206f776e657220697320746865207a65726f206160008301527f64647265737300000000000000000000000000000000000000000000000000006020830152604082019050919050565b60006122e6600d836127d2565b91507f546f2062696720616d6f756e74000000000000000000000000000000000000006000830152602082019050919050565b6000612326600e836127d2565b91507f546f6f20736d616c6c206c6f616e0000000000000000000000000000000000006000830152602082019050919050565b60006123666019836127d2565b91507f496e636f6d706c657465206c6f636b696e6720706572696f64000000000000006000830152602082019050919050565b60006123a6601b836127d2565b91507f4d696e696d756d206c6f636b20706572696f642031206d6f6e746800000000006000830152602082019050919050565b60006123e66011836127d2565b91507f496e636f7272656374204c6f616e2049440000000000000000000000000000006000830152602082019050919050565b60006124266018836127d2565b91507f496e73756666696369656e7420706f6f6c20766f6c756d6500000000000000006000830152602082019050919050565b6000612466600a836127d2565b91507f4e6f74206c6f616e6572000000000000000000000000000000000000000000006000830152602082019050919050565b60006124a66020836127d2565b91507f4f776e61626c653a2063616c6c6572206973206e6f7420746865206f776e65726000830152602082019050919050565b6124e28161295c565b82525050565b6124f181612998565b82525050565b600060208201905061250c6000830184612215565b92915050565b60006060820190506125276000830186612215565b6125346020830185612215565b61254160408301846124e8565b949350505050565b600060408201905061255e6000830185612215565b61256b60208301846124e8565b9392505050565b60006020820190506125876000830184612224565b92915050565b600060208201905081810360008301526125a681612233565b9050919050565b600060208201905081810360008301526125c681612273565b9050919050565b600060208201905081810360008301526125e6816122d9565b9050919050565b6000602082019050818103600083015261260681612319565b9050919050565b6000602082019050818103600083015261262681612359565b9050919050565b6000602082019050818103600083015261264681612399565b9050919050565b60006020820190508181036000830152612666816123d9565b9050919050565b6000602082019050818103600083015261268681612419565b9050919050565b600060208201905081810360008301526126a681612459565b9050919050565b600060208201905081810360008301526126c681612499565b9050919050565b60006020820190506126e260008301846124e8565b92915050565b60006040820190506126fd60008301856124e8565b61270a60208301846124e8565b9392505050565b600060808201905061272660008301876124e8565b61273360208301866124e8565b61274060408301856124d9565b61274d60608301846124d9565b95945050505050565b600060608201905061276b60008301866124e8565b61277860208301856124e8565b61278560408301846124e8565b949350505050565b60006080820190506127a260008301876124e8565b6127af60208301866124e8565b6127bc60408301856124e8565b6127c960608301846124e8565b95945050505050565b600082825260208201905092915050565b60006127ee8261295c565b91506127f98361295c565b9250826fffffffffffffffffffffffffffffffff0382111561281e5761281d6129eb565b5b828201905092915050565b600061283482612998565b915061283f83612998565b9250827fffffffffffffffffffffffffffffffffffffffffffffffffffffffffffffffff03821115612874576128736129eb565b5b828201905092915050565b600061288a82612998565b915061289583612998565b9250826128a5576128a4612a1a565b5b828204905092915050565b60006128bb82612998565b91506128c683612998565b9250817fffffffffffffffffffffffffffffffffffffffffffffffffffffffffffffffff04831182151516156128ff576128fe6129eb565b5b828202905092915050565b600061291582612998565b915061292083612998565b925082821015612933576129326129eb565b5b828203905092915050565b600061294982612978565b9050919050565b60008115159050919050565b60006fffffffffffffffffffffffffffffffff82169050919050565b600073ffffffffffffffffffffffffffffffffffffffff82169050919050565b6000819050919050565b60006129ad82612998565b91507fffffffffffffffffffffffffffffffffffffffffffffffffffffffffffffffff8214156129e0576129df6129eb565b5b600182019050919050565b7f4e487b7100000000000000000000000000000000000000000000000000000000600052601160045260246000fd5b7f4e487b7100000000000000000000000000000000000000000000000000000000600052601260045260246000fd5b612a528161293e565b8114612a5d57600080fd5b50565b612a6981612950565b8114612a7457600080fd5b50565b612a808161295c565b8114612a8b57600080fd5b50565b612a9781612998565b8114612aa257600080fd5b5056fea26469706673582212204ef2991e8edb22d0ff21e9c06bb081082b003974b09ad46b912055a647e6ef9564736f6c63430008000033",
  "immutableReferences": {
    "1458": [
      {
        "length": 32,
        "start": 2215
      },
      {
        "length": 32,
        "start": 2791
      },
      {
        "length": 32,
        "start": 3202
      },
      {
        "length": 32,
        "start": 4334
      },
      {
        "length": 32,
        "start": 5174
      },
      {
        "length": 32,
        "start": 6668
      },
      {
        "length": 32,
        "start": 7407
      }
    ],
    "1461": [
      {
        "length": 32,
        "start": 5365
      },
      {
        "length": 32,
        "start": 7231
      }
    ]
  },
  "source": "// SPDX-License-Identifier: MIT\r\npragma solidity ^0.8.0;\r\n\r\nimport \"@openzeppelin/contracts/access/Ownable.sol\";\r\nimport \"@openzeppelin/contracts/token/ERC20/IERC20.sol\";\r\n\r\n/**\r\n * @title CollateralizedLeverage_pool\r\n * This contract was developed from the very beginning, because I misunderstood the assignment.\r\n * It allows to lend to the collective pool and take any amount from the pool without being tied to a specific lender.\r\n * But for production, it still needs to be finalized.\r\n */\r\ncontract CollateralizedLeverage_pool is Ownable {\r\n    uint256 public constant MONTH = 30 days;\r\n    uint256 public constant EXCANGE_RATE = 2;\r\n    uint256 public constant MONTH_RETURN_RATE = 5;\r\n    uint256 public constant MONTH_INTEREST_RATE = 10;\r\n\r\n    IERC20 private immutable tokenX;\r\n    IERC20 private immutable tokenA;\r\n    struct LoanData {\r\n        uint256 amount;\r\n        uint256 timestamp;\r\n        uint256 reward;\r\n    }\r\n    struct Mortgage {\r\n        uint256 amountX;\r\n        uint256 amountA;\r\n        uint128 startDate;\r\n        uint128 duration;\r\n    }\r\n    mapping(address => LoanData) public pool;\r\n    mapping(address => Mortgage[]) public loans;\r\n\r\n    event AddedToPool(\r\n        address indexed loaner,\r\n        uint256 amount,\r\n        uint256 timestamp\r\n    );\r\n    event WithdrawedFromPool(\r\n        address indexed loaner,\r\n        uint256 amount,\r\n        uint256 reward\r\n    );\r\n\r\n    event CollateralLoanTaken(\r\n        address indexed borrower,\r\n        uint256 amountX,\r\n        uint256 amountA,\r\n        uint256 timestamp\r\n    );\r\n\r\n    event CollateralLoanReturned(\r\n        address indexed borrower,\r\n        uint256 amountX,\r\n        uint256 paybackX,\r\n        uint256 amountA,\r\n        uint256 timestamp\r\n    );\r\n\r\n    event CollateralLoanRenewed(\r\n        address indexed borrower,\r\n        uint256 amountX,\r\n        uint256 paybackX,\r\n        uint256 amountA,\r\n        uint256 timestamp\r\n    );\r\n\r\n    /**\r\n     * @dev Creates a collateralized leverage contract.\r\n     * @param _tokenX address of the IERC20 stable token.\r\n     * @param _tokenA address of the IERC20 collateral token.\r\n     */\r\n    constructor(address _tokenX, address _tokenA) {\r\n        tokenX = IERC20(_tokenX);\r\n        tokenA = IERC20(_tokenA);\r\n    }\r\n\r\n    /**\r\n     * @notice Safely cast an uint256 to an uint128\r\n     * @param x convertible number\r\n     */\r\n    function u128(uint256 x) internal pure returns (uint128 y) {\r\n        require(x <= type(uint128).max, \"Cast overflow\");\r\n        y = uint128(x);\r\n    }\r\n\r\n    /**\r\n     * @notice Adds stablecoins from the lender to the lending pool.\r\n     * @param _amountTokenX amount of stable coins\r\n     */\r\n    function AddToPool(uint256 _amountTokenX) external {\r\n        require(_amountTokenX > 0, \"Too small loan\");\r\n        address loaner = msg.sender;\r\n        LoanData memory loanData = pool[loaner];\r\n        uint256 reward;\r\n        if (pool[loaner].amount != 0) {\r\n            reward = _calculatePoolReward(\r\n                loanData.amount,\r\n                block.timestamp - loanData.timestamp\r\n            );\r\n        }\r\n        loanData.amount = loanData.amount + _amountTokenX;\r\n        loanData.timestamp = block.timestamp;\r\n        loanData.reward = reward;\r\n        pool[loaner] = loanData;\r\n        tokenX.transferFrom(loaner, address(this), _amountTokenX);\r\n        emit AddedToPool(loaner, _amountTokenX, block.timestamp);\r\n    }\r\n\r\n    /**\r\n     * @notice Returns stablecoins with rewards to the lender\r\n     * @param _amountTokenX amount of stable coins\r\n     */\r\n    function withdrawFromPool(uint256 _amountTokenX) external {\r\n        address loaner = msg.sender;\r\n        LoanData memory loanData = pool[loaner];\r\n        require(loanData.amount != 0, \"Not loaner\");\r\n        require(loanData.amount >= _amountTokenX, \"To big amount\");\r\n        uint256 reward = _calculatePoolReward(\r\n            loanData.amount,\r\n            block.timestamp - loanData.timestamp\r\n        );\r\n        require(\r\n            tokenX.balanceOf(address(this)) >= _amountTokenX + reward,\r\n            \"Insufficient pool volume\"\r\n        );\r\n        loanData.amount = loanData.amount - _amountTokenX;\r\n        loanData.timestamp = block.timestamp;\r\n        reward = reward + loanData.reward;\r\n        loanData.reward = 0;\r\n        pool[loaner] = loanData;\r\n        uint256 finalAmount = _amountTokenX + reward;\r\n        tokenX.transfer(loaner, finalAmount);\r\n        emit WithdrawedFromPool(loaner, _amountTokenX, reward);\r\n    }\r\n\r\n    /**\r\n     * @dev Calculate rewards to the lender. Based on retention period and interest rate.\r\n     * @param _amount base sum of calculations\r\n     * @param _duration of investment period\r\n     */\r\n    function _calculatePoolReward(uint256 _amount, uint256 _duration)\r\n        internal\r\n        pure\r\n        returns (uint256 reward)\r\n    {\r\n        uint256 rewardPerMonth = (_amount * MONTH_RETURN_RATE) / 100;\r\n        uint256 monthsNum = _duration / MONTH;\r\n        for (uint256 i = 0; i <= monthsNum; i++) {\r\n            reward += rewardPerMonth;\r\n        }\r\n    }\r\n\r\n    /**\r\n     * @notice Returns investment amount of a particular lender\r\n     * @param _loaner address of the lender\r\n     */\r\n    function getPoolAmountForLoaner(address _loaner)\r\n        external\r\n        view\r\n        returns (uint256)\r\n    {\r\n        return pool[_loaner].amount;\r\n    }\r\n\r\n    /**\r\n     * @notice Returns reward amount of a particular lender\r\n     * @param _loaner address of the lender\r\n     */\r\n    function getPoolRewardForLoaner(address _loaner)\r\n        external\r\n        view\r\n        returns (uint256)\r\n    {\r\n        return\r\n            _calculatePoolReward(\r\n                pool[_loaner].amount,\r\n                block.timestamp - pool[_loaner].timestamp\r\n            );\r\n    }\r\n\r\n    /**\r\n     * @notice Allows the borrower to borrow any ammount of stable tokens from the pool. Needed collateral.\r\n     * @param _amountTokenA amount of collateral token\r\n     * @param _duration of collateral period\r\n     */\r\n    function takeCollateralLoan(uint256 _amountTokenA, uint128 _duration)\r\n        external\r\n    {\r\n        require(_duration >= MONTH, \"Minimum lock period 1 month\");\r\n        address borrower = msg.sender;\r\n        uint256 _amountTokenX = _amountTokenA / EXCANGE_RATE;\r\n        require(\r\n            tokenX.balanceOf(address(this)) >= _amountTokenX,\r\n            \"Insufficient pool volume\"\r\n        );\r\n        loans[borrower].push(\r\n            Mortgage(\r\n                _amountTokenX,\r\n                _amountTokenA,\r\n                u128(block.timestamp),\r\n                _duration\r\n            )\r\n        );\r\n        tokenA.transferFrom(borrower, address(this), _amountTokenA);\r\n        tokenX.transfer(borrower, _amountTokenX);\r\n        emit CollateralLoanTaken(\r\n            borrower,\r\n            _amountTokenX,\r\n            _amountTokenA,\r\n            block.timestamp\r\n        );\r\n    }\r\n\r\n    /**\r\n     * @notice Repayment by the borrower of the loan taken and return of the collateral\r\n     * @param _loanID  borrower loan ID\r\n     */\r\n    function returnCollateralLoan(uint256 _loanID) external {\r\n        address borrower = msg.sender;\r\n        require((_loanID < loans[borrower].length), \"Incorrect Loan ID\");\r\n        Mortgage memory loan = loans[borrower][_loanID];\r\n        require(\r\n            block.timestamp <= loan.startDate + loan.duration,\r\n            \"Incomplete locking period\"\r\n        );\r\n        uint256 payback = _calculateReturnsForBorrower(loan);\r\n        tokenX.transferFrom(borrower, address(this), loan.amountX + payback);\r\n        tokenA.transfer(borrower, loan.amountA);\r\n        // Delete loan from array\r\n        loans[borrower][_loanID] = loans[borrower][loans[borrower].length - 1];\r\n        loans[borrower].pop();\r\n        //\r\n        emit CollateralLoanReturned(\r\n            borrower,\r\n            loan.amountX,\r\n            payback,\r\n            loan.amountA,\r\n            block.timestamp\r\n        );\r\n    }\r\n\r\n    /**\r\n     * @dev in developing\r\n     * @param _loanID  borrower loan ID\r\n     */\r\n    function returnCollateralLoanAheadOfSchedule(uint256 _loanID) external {\r\n        // The same as returnCollateralLoan() but without controll of locktime and return with penalty (and payback).\r\n        // Not implemented for simplicity\r\n    }\r\n\r\n    /**\r\n     * @notice Calculate loan fee to the borrower. Based on retention period and loan fee rate.\r\n     * @param _loanID borrower loan ID\r\n     * @param _newDuration new duration of the loan\r\n     */\r\n    function renewCollateralLoan(uint256 _loanID, uint128 _newDuration)\r\n        external\r\n    {\r\n        require(_newDuration >= MONTH, \"Minimum lock period 1 month\");\r\n        address borrower = msg.sender;\r\n        require((_loanID < loans[borrower].length), \"Incorrect Loan ID\");\r\n        Mortgage memory loan = loans[borrower][_loanID];\r\n        uint256 payback = _calculateReturnsForBorrower(loan);\r\n        loan.startDate = u128(block.timestamp);\r\n        loan.duration = _newDuration;\r\n        loans[borrower][_loanID] = loan;\r\n        tokenX.transferFrom(borrower, address(this), payback);\r\n        emit CollateralLoanRenewed(\r\n            borrower,\r\n            loan.amountX,\r\n            payback,\r\n            loan.amountA,\r\n            block.timestamp\r\n        );\r\n    }\r\n\r\n    /**\r\n     * @notice Calculate loan fee to the borrower. Based on retention period and loan fee rate.\r\n     * @param _loan structure of loan\r\n     */\r\n    function _calculateReturnsForBorrower(Mortgage memory _loan)\r\n        internal\r\n        view\r\n        returns (uint256 payback)\r\n    {\r\n        uint256 duration = block.timestamp - _loan.startDate;\r\n        uint256 paybackPerMonth = (_loan.amountX * MONTH_INTEREST_RATE) / 100;\r\n        uint256 monthsNum = duration / MONTH;\r\n        for (uint256 i = 0; i <= monthsNum; i++) {\r\n            payback += paybackPerMonth;\r\n        }\r\n    }\r\n\r\n    // BONUS: Can we add a check that allows the lender to take the collateral before the end of the lock period in case the previous situation applies?\r\n    // ANSWER: Yes\r\n    /**\r\n     * @notice Determines if the loan fee exceeded the collateral\r\n     * @param _loanID borrower loan ID\r\n     */\r\n    function CollateralLowerThanInterest(uint256 _loanID)\r\n        public\r\n        view\r\n        returns (bool)\r\n    {\r\n        address borrower = msg.sender;\r\n        Mortgage memory loan = loans[borrower][_loanID];\r\n        return _calculateReturnsForBorrower(loan) > loan.amountX;\r\n    }\r\n\r\n    // BONUS: Assuming that the exchange rate between token A and token X will be the same. What is the maximum period it is advised to issue a loan? I.E. Is there a moment where collateral will be lower than principal+interest?\r\n    // ANSWER: With the condition that the interest is 10%, after 10 months the deposit will be less than collateral (10% * 10 = 100%)\r\n}\r\n\r\n// !!! I have a misunderstanding of this paragraph:\r\n// Scenario 2 Borrower cant pay back the loan\r\n//    - Lender can decide to take collateral at any time\r\n//\r\n// If Lenders put funds into a pool, and borrowers take from the pool. This means that borrower is not related to the Lender.\r\n// How then Lender can take collateral?\r\n// Of course, possible to take collateral from the pool, but how to determine which Lender to give collateral to?\r\n// And there is the problem of obtaining a list of overdue loans. I don't know how to solve this problem OnChain.\r\n// If the borrower has overdue the loan and does not take any action, then it is not clear how to get data on his loan.\r\n// It is possible to contain an array with active (unclosed credits), but if it is large, there may not be enough gas to search through it.\r\n// In my opinion, the best solution for tracking overdue loans is the backend.\r\n// Possible to parse the list of events from the frontend, but this can be a problem due to the size of the list.\r\n",
  "sourcePath": "D:\\react\\github\\CollateraizedLeverageContract\\contracts\\CollateralizedLeverage_pool.sol",
  "compiler": {
    "name": "solc",
    "version": "0.8.0+commit.c7dfd78e.Emscripten.clang"
  },
  "schemaVersion": "3.4.7",
  "updatedAt": "2022-09-16T18:12:06.888Z",
  "devdoc": {
    "kind": "dev",
    "methods": {
      "AddToPool(uint256)": {
        "params": {
          "_amountTokenX": "amount of stable coins"
        }
      },
      "CollateralLowerThanInterest(uint256)": {
        "params": {
          "_loanID": "borrower loan ID"
        }
      },
      "constructor": {
        "details": "Creates a collateralized leverage contract.",
        "params": {
          "_tokenA": "address of the IERC20 collateral token.",
          "_tokenX": "address of the IERC20 stable token."
        }
      },
      "getPoolAmountForLoaner(address)": {
        "params": {
          "_loaner": "address of the lender"
        }
      },
      "getPoolRewardForLoaner(address)": {
        "params": {
          "_loaner": "address of the lender"
        }
      },
      "owner()": {
        "details": "Returns the address of the current owner."
      },
      "renewCollateralLoan(uint256,uint128)": {
        "params": {
          "_loanID": "borrower loan ID",
          "_newDuration": "new duration of the loan"
        }
      },
      "renounceOwnership()": {
        "details": "Leaves the contract without owner. It will not be possible to call `onlyOwner` functions anymore. Can only be called by the current owner. NOTE: Renouncing ownership will leave the contract without an owner, thereby removing any functionality that is only available to the owner."
      },
      "returnCollateralLoan(uint256)": {
        "params": {
          "_loanID": "borrower loan ID"
        }
      },
      "returnCollateralLoanAheadOfSchedule(uint256)": {
        "details": "in developing",
        "params": {
          "_loanID": "borrower loan ID"
        }
      },
      "takeCollateralLoan(uint256,uint128)": {
        "params": {
          "_amountTokenA": "amount of collateral token",
          "_duration": "of collateral period"
        }
      },
      "transferOwnership(address)": {
        "details": "Transfers ownership of the contract to a new account (`newOwner`). Can only be called by the current owner."
      },
      "withdrawFromPool(uint256)": {
        "params": {
          "_amountTokenX": "amount of stable coins"
        }
      }
    },
    "title": "CollateralizedLeverage_pool This contract was developed from the very beginning, because I misunderstood the assignment. It allows to lend to the collective pool and take any amount from the pool without being tied to a specific lender. But for production, it still needs to be finalized.",
    "version": 1
  },
  "userdoc": {
    "kind": "user",
    "methods": {
      "AddToPool(uint256)": {
        "notice": "Adds stablecoins from the lender to the lending pool."
      },
      "CollateralLowerThanInterest(uint256)": {
        "notice": "Determines if the loan fee exceeded the collateral"
      },
      "getPoolAmountForLoaner(address)": {
        "notice": "Returns investment amount of a particular lender"
      },
      "getPoolRewardForLoaner(address)": {
        "notice": "Returns reward amount of a particular lender"
      },
      "renewCollateralLoan(uint256,uint128)": {
        "notice": "Calculate loan fee to the borrower. Based on retention period and loan fee rate."
      },
      "returnCollateralLoan(uint256)": {
        "notice": "Repayment by the borrower of the loan taken and return of the collateral"
      },
      "takeCollateralLoan(uint256,uint128)": {
        "notice": "Allows the borrower to borrow any ammount of stable tokens from the pool. Needed collateral."
      },
      "withdrawFromPool(uint256)": {
        "notice": "Returns stablecoins with rewards to the lender"
      }
    },
    "version": 1
  }
}